:020000040800F2
:100000000000022041350008FD030008FF0300083E
:1000100001040008030400080504000800000000B3
:1000200000000000000000000000000007040008BD
:1000300009040008000000000B0400080D0400087B
:100040009135000891350008913500089135000878
:100050009135000891350008913500089135000868
:100060009135000891350008913500089135000858
:100070009135000891350008913500089135000848
:100080009135000891350008913500080000000006
:100090000000000000000000000000009135000892
:1000A0009135000891350008913500089135000818
:1000B0009135000891350008913500089135000808
:1000C00091350008913500089135000891350008F8
:1000D00091350008913500089135000800000000B6
:1000E00091350008913500089135000800000000A6
:1000F0000000000000000000000000009135000832
:100100000000000091350008913500089135000885
:1001100000000000000000000000000000000000DF
:100120009135000891350008913500089135000897
:1001300091350008000000000000000000000000F1
:10014000000000000000000000000000150400088E
:100150009135000891350008913500089135000867
:1001600091350008913500080000000000000000F3
:10017000000000000000000000000000000000007F
:1001800000000000913500080000000000000000A1
:080190009135000891350008CB
:1001980053B94AB9002908BF00281CBF4FF0FF31E6
:1001A8004FF0FF3000F00CB8ADF1080C6DE904CE4B
:1001B80003F036FBDDF804E0DDE9022304B0704704
:1001C800704700BF0348044B834202D0034B03B17E
:1001D800184770479C0100209C0100200000000087
:1001E8000548064B1B1AD90F01EBA301491002D091
:1001F800034B03B1184770479C0100209C01002065
:100208000000000010B5064C237843B9FFF7DAFF69
:10021800044B13B10448AFF300800123237010BDD1
:100228009C01002000000000F03A000808B5054BCA
:100238001BB105490548AFF30080BDE80840FFF74A
:10024800CFBF00BF00000000A0010020F03A000866
:1002580070B586B04FF480550195012602960223A9
:1002680004930B4C01A9204602F000F8002229460D
:10027800204602F0DFF8142002F0A0F932462946A1
:10028800204602F0D7F8142002F098F906B070BDA5
:100298000000024000B583B00B4B019301F048FF0A
:1002A8004FF0E02300221A615A619A61074B01223C
:1002B8001A60019B5B68019A126882F30888984764
:1002C80003B05DF804FB00BF0000FF1F00380140C9
:1002D80072B6FEE700B595B03022002108A803F0F9
:1002E80097F90023039304930593069307930193C7
:1002F8001F4A116C41F080511164126C02F0805257
:100308000192019A02931B4B1A6842F440421A6008
:100318001B6803F440430293029B012308934FF4A4
:100328008033099302230E934FF480020F9219220F
:100338001092C022119212930423139308A801F07B
:10034800F1FB88B90F230393022304930023059339
:100358004FF4805206920793032103A801F032FE5E
:1003680020B915B05DF804FBFFF7B2FFFFF7B0FF47
:10037800003802400070004010B502F0F3F8FFF7B3
:10038800A9FF00F01BF8FFF763FF642002F016F9DD
:1003980002F0C0FE642002F011F90CE0E2B2002184
:1003A800012002F0A1FE0A2002F008F90134632CB2
:1003B800F4DDFFF76FFF0024F9E7000082B00021A9
:1003C80000910B4B1A6B42F080021A631A6B02F011
:1003D80080020092009A01911A6B42F001021A639E
:1003E8001B6B03F001030193019B02B0704700BF30
:1003F80000380240FEE7FEE7FEE7FEE7FEE770474B
:100408007047704708B502F0C7F808BD08B502483C
:1004180000F0E2F908BD00BF6004002082B00021AE
:1004280000910B4B5A6C42F480425A645A6C02F4A5
:1004380080420092009A01911A6C42F080521A642C
:100448001B6C03F080530193019B02B0704700BFFF
:10045800003802402DE9F04383B0D0F80080C1EBAA
:10046800C10300EB83035A6D1B6D9A4254D80746AB
:100478000C469B1AC1EBC10200EB8202526C9A42F5
:1004880000D31A4602F103094FEA990915E006F16B
:1004980003094FEA9909C4EBC40507EB8505A96C64
:1004A8003B7C0093B3B2E2B2404601F0B9F8AB6CC2
:1004B8003344AB646B6D33446B6508EB441303F54D
:1004C80010639B699BB24B4512D3C4EBC40307EB83
:1004D80083035A6D1B6D9A420AD24BB19B1AC4EB27
:1004E800C40207EB8202566C9E42D0D31E46CEE76A
:1004F800C4EBC40307EB83073A6D7B6D9A420FD8B0
:1005080004F00F040122A240D8F8343823EA020389
:10051800C8F83438002000E0012003B0BDE8F083BB
:100528000020FAE770B58AB0002800F090800546F0
:10053800046890F8BD333BB3032385F8BD33E36B00
:1005480013F4807F01D100232B61286800F006FE98
:100558002C4654F8106BEC460FCCACE80F000FCCCF
:10056800ACE80F0094E803008CE803002B1D0ECBC9
:10057800304600F035FD044658B1022385F8BD33F6
:10058800012420460AB070BD80F8BC3302F0DEFDBD
:10059800D2E70021286801F054FA234616E0C3EB9D
:1005A800C30205EB8202012182F83D1082F83C303B
:1005B800A2F84230002182F83F1051649164C3EBE5
:1005C800C30205EB820211650133DBB269688B4215
:1005D800E5D316E0C4EBC40305EB8303002283F8DC
:1005E800FD2183F8FC4183F8FF21C3F80422C3F8F6
:1005F8000822C4EBC40305EB8303C3F810220134BB
:10060800E4B2A142E6D82C4654F8106BEC460FCC65
:10061800ACE80F000FCCACE80F0094E803008CE8BE
:1006280003002B1D0ECB304600F0D4FD044620B14C
:10063800022385F8BD330124A3E7002385F8383069
:10064800012385F8BD33286801F0BAF999E7012438
:1006580097E7026890F8BC33012B19D010B504460F
:10066800012380F8BC33836A012B09D0206800F08D
:100678006FFD206801F096F9002084F8BC0310BDD6
:100688008369012BF2D0936B43F480339363EDE7D6
:100698000220704770B504460D460068066C00EBF2
:1006A800411303F530639A682169012911D034494F
:1006B8008E424ED03DB9C5EBC50304EB8303D3F896
:1006C8001032002B56D0E9B2204602F093FD0020EC
:1006D80070BD12F0080F09D02A498E42F7D912F4DA
:1006E800004FF4D04FF400429A60F0E712F0200F68
:1006F80002D020229A60EAE712F0280FE7D12149B8
:100708008E4206D912F4004F03D04FF400429A608B
:10071800DDE7C5EBC50204EB8202D2F804121B69BF
:10072800C3F31203CB1AC2F81432D2F808320B44BE
:10073800C2F8083215B9D2F8103223B1E9B220460E
:1007480002F058FDC3E704F57172012101F0BAF90E
:10075800F4E712F4004F03D04FF400429A60B6E772
:1007680012F0200F01D020229A60E9B2204602F050
:1007780041FDACE704F57172002101F0A3F9A2E78D
:100788000A31544F0A30544F38B5044603681D6C7B
:1007980003EB4113D3F8081B0E4A954207D903F51A
:1007A800306311F4004F02D04FF400429A602046A3
:1007B80002F018FD074B9D4202D92369012B01D095
:1007C800002038BD04F571720121206801F07AF922
:1007D800F6E700BF0A30544F2DE9F84F0446056884
:1007E800284601F02AF908B1BDE8F88F06462068C6
:1007F80001F0F4F80028F7D0206801F0EFF810F0C5
:10080800020F04D02268536903F002035361206881
:1008180001F0E4F810F0100F13D02268936923F068
:10082800100393612F6A07F00F08C7F34343022BA5
:1008380068D0062B00F084802268936943F0100387
:100848009361206801F0CAF810F4002F40F08A8004
:10085800206801F0C3F810F4802F40F0CC802068A5
:1008680001F0BCF80028C0F23681206801F0B6F823
:1008780010F4006F0AD0D5F8083813F0010F40F0D3
:1008880044812268536903F400635361206801F0CE
:10089800A5F810F4805F40F03C81206801F09EF8D4
:1008A80010F4005F40F09181206801F097F810F093
:1008B800080F40F0A281206801F090F810F4801F22
:1008C80040F0A481206801F089F810F4001F40F07E
:1008D800A781206801F082F810F0804F40F0AA81CB
:1008E800206801F07BF810F0040F3FF47DAF236817
:1008F8005D6815F0040F40F0A681226853682B4309
:10090800536071E747F6F0731F4295D04FEA171B03
:10091800C8EBC80904EB8909C7F30A12D9F8081209
:10092800284600F0B1FFCBF30A02D9F80832134485
:10093800C9F80832D9F814321344C9F814327BE7DD
:10094800082204F57171284600F09EFFC7F30A17C4
:10095800C8EBC80204EB8202D2F814323B44C2F856
:10096800143269E7206801F03DF80746B04616E002
:1009780005EB48130122C3F8082B41462046FFF730
:1009880089FE1BE005EB48130822C3F8082B4146F3
:100998002046FFF7F9FE14E008F101087F08002F50
:1009A8003FF456AF17F0010FF6D05FFA88F12068D0
:1009B80001F028F8814610F0010FD9D119F0080F7D
:1009C800E0D119F0100F04D005EB48131022C3F83A
:1009D800082B19F0200F04D005EB48132022C3F888
:1009E800082B19F4005FD7D005EB48134FF40052D9
:1009F800C3F8082BD0E7206800F0FCFF0746B04694
:100A080029E05146204602F001FC19F0080F04D0F5
:100A180005EB48130822C3F8082919F0100F04D071
:100A280005EB48131022C3F8082919F0400F04D029
:100A380005EB48134022C3F8082919F0020F04D027
:100A480005EB48130222C3F8082919F0800F3DD19D
:100A580008F101087F08002F3FF401AF17F0010FDC
:100A6800F6D05FFA88FA5146206800F0D4FF814634
:100A780010F0010FC9D008F00F02012101FA02F2AB
:100A8800D5F8343823EA0203C5F8343805EB48139F
:100A9800C3F8081923698B42B3D1C8EBC80304EB28
:100AA8008303596C9A6C0A449A64B8F1000FA8D170
:100AB800C8EBC80304EB83031B6D002BA1D104F51D
:100AC80071720121206800F0FDFF9AE74146204637
:100AD800FFF7C0FCBCE7D5F8043823F00103C5F8DC
:100AE800043894F8F433012B08D0204602F0CEFBEA
:100AF8002268536903F000435361B6E6002184F885
:100B0800F413204600F045FAF2E7204602F0A6FB6F
:100B1800B7E605F500677B6823F001037B601021C9
:100B2800206800F021FB20E005EB46134FF67F31EB
:100B3800C3F80819D3F8002922F40012C3F80029D1
:100B4800D3F8002942F00062C3F80029C3F8081B53
:100B5800D3F8002B22F40012C3F8002BD3F8002B93
:100B680042F00062C3F8002B01366368B342DBD859
:100B7800FB6943F00113FB61236BDBB1D7F88430C9
:100B880043F00B03C7F884307B6C43F00B037B64A2
:100B9800D5F8003823F4FE63C5F8003804F57172FF
:100BA800217C206800F08EFF2268536903F480538B
:100BB800536172E67B6943F4005343F02B037B6176
:100BC8003B6943F00B033B61E2E7206800F06AFFF2
:100BD800206800F0C7FBE060256801F0A3FA014631
:100BE800227B284600F042FA204602F020FB2268C9
:100BF800536903F40053536156E6204602F011FB93
:100C08002268536903F00803536154E60021204623
:100C180002F048FB2268536903F48013536151E6DC
:100C28000021204602F038FB2268536903F40013C0
:100C380053614EE6204602F03BFB2268536903F0FD
:100C4800804353614CE6204602F038FB55E690F8A5
:100C5800BC33012B0DD010B50446012380F8BC33FA
:100C680080F83810006800F08DFE002084F8BC037E
:100C780010BD0220704738B505468C4611F0800F2C
:100C880029D101F00F0ECEEBCE04A40004F5FC74BC
:100C98000444211DCEEBCE0E00EB8E0E00208EF804
:100CA800FD010CF00F0C81F800C08A60CB704A7807
:100CB8000AB1A1F806C0022B1DD095F8BC33012B50
:100CC8001CD0012385F8BC33286800F05CFB0020A9
:100CD80085F8BC0338BD01F00F00C0EBC0018900E6
:100CE800383129440431C0EBC00005EB80000124F1
:100CF80080F83D40D5E700230B71DEE70220E9E7E5
:100D080010B504460A4611F0800F20D101F00F00FB
:100D1800C0EBC0039B0003F5FC732344191DC0EB13
:100D2800C00004EB8000002380F8FD3102F00F02C0
:100D38000A7094F8BC33012B19D0012384F8BC3312
:100D4800206800F06DFB002084F8BC0310BD01F0A2
:100D58000F00C0EBC0039B0038332344191DC0EBC0
:100D6800C00004EB8000012380F83D30DEE702205C
:100D7800ECE710B501F00F04C4EBC401890001F5DC
:100D8800FC7101440431C4EBC40C00EB8C0CCCF8AE
:100D98000822CCF810320023CCF814328CF8FD313C
:100DA8008CF8FC410369012B06D064B9DAB20068FB
:100DB80000F0A6FB002010BDC4EBC40C00EB8C0CAB
:100DC800CCF80C22F1E7DAB2006800F041FCF1E758
:100DD80001F00F01C1EBC10100EB8100D0F8140252
:100DE800704710B501F00F04C4EBC4018900383115
:100DF80001440431C4EBC40C00EB8C0CCCF8482043
:100E0800CCF850300023CCF8543001238CF83D3016
:100E18008CF83C400369012B06D064B9DAB200684B
:100E280000F06EFB002010BDC4EBC40C00EB8C0C72
:100E3800CCF84C20F1E7DAB2006800F009FCF1E7E1
:100E480038B501F00F054268954239D804460B467B
:100E580011F0800F1FD1C1EBC101890001F5FC71B0
:100E680001440431C3EBC30300EB8303002283F87E
:100E7800FD2101238B700D7094F8BC33012B21D018
:100E8800012384F8BC33206800F021FD8DB10020D7
:100E980084F8BC0338BDC5EBC5018900383101446D
:100EA8000431C5EBC50300EB8303012283F83D2021
:100EB800DFE704F57172217C206800F003FEE6E7A5
:100EC8000120E7E70220E5E701F00F0342689342BB
:100ED80031D810B5044611F0800F1ED1C3EBC30101
:100EE800890001F5FC7101440431C3EBC30200EB36
:100EF8008202002082F8FD0100228A700B7094F8AB
:100F0800BC33012B19D0012384F8BC33206800F0CE
:100F18000BFD002084F8BC0310BDC3EBC30189009E
:100F2800383101440431C3EBC30200EB82020120D3
:100F380082F83D00E0E7012070470220ECE710B49A
:100F48000468606A31B940EA0240A06200205DF896
:100F5800044B70478C46A36A00EB1340002308E05B
:100F680003F1400104EB8101496800EB11400133B2
:100F7800DBB20CF1FF318B42F2D340EA02400CF1B4
:100F88003F0104EB81046060E0E7036859620020D8
:100F98007047704782B000230193019B013301938E
:100FA8000E4A934214D80369002BF6DA0023019302
:100FB800036943F001030361019B01330193074A6D
:100FC800934208D8036913F0010FF5D1002000E01F
:100FD800032002B070470320FBE700BF400D030069
:100FE80084B010B5044603A880E80E00089B012BC6
:100FF8001FD1A36B23F48033A363E36823F4840332
:1010080023F04003E360E36823F44013E3600F9B9D
:10101800012B09D02046FFF7BDFF069B012B1BD0F3
:10102800BDE8104004B07047E36843F48013E36000
:10103800F0E7E36843F04003E3602046FFF7AAFFC8
:101048000C9B23B9A36B43F48033A363E5E7A36B3D
:1010580023F48033A363E0E7A36843F00603A360A7
:10106800A36843F02003A360DAE70000022A0AD04D
:101078000922C36823F47053C360C36843EA822318
:10108800C36000207047234B0B44234A93422FD957
:10109800224B0B44224A93422CD9A1F57403A3F5A1
:1010A8001053204A934227D9A1F18373A3F5E7434C
:1010B8001D4A934222D31D4B0B441D4A93421FD90C
:1010C8001C4B0B441C4A93421CD31C4B0B441C4A1C
:1010D800934219D3A1F1B773A3F55853194A934210
:1010E80014D3194B0B44194A934211D20722C0E773
:1010F8000F22BEE70E22BCE70D22BAE70C22B8E7A2
:101108000B22B6E70A22B4E70922B2E70822B0E7C1
:101118000622AEE7405327FFFF340C00401E1BFF9A
:101128003F420F007F4F120020D6130060B6E5FE45
:101138005FE3160000D3CEFE40771B00C05BB3FE12
:10114800C091210020753800E05459FEE09C410010
:10115800836843F00103836000207047836823F0AD
:10116800010383600020704782B000230193890146
:1011780041F020010161019B01330193054A93422B
:1011880005D8036913F0200FF5D1002000E00320F3
:1011980002B07047400D030082B000230193102372
:1011A8000361019B01330193054A934205D8036902
:1011B80013F0100FF5D1002000E0032002B07047B3
:1011C800400D0300D0F800381943C0F8001800207B
:1011D8007047000084B02DE9F041044607A880E874
:1011E8000E00002306E003F1400204EB8202002116
:1011F800516001330E2BF6D9119F27BBD4F8043860
:1012080043F00203C4F80438A36B43F40013A36348
:10121800A36B23F40023A363A36B23F48023A363AA
:101228000023C4F8003E04F50065D4F80038C4F87B
:1012380000380C9B012B14D1099B6BB90021204667
:10124800FFF7C0FF11E0A36B23F40013A363A36BA4
:1012580043F40023A363E3E701212046FFF7B2FF2D
:1012680003E003212046FFF7ADFF10212046FFF7DA
:101278007BFF804608B14FF001082046FFF78CFF3E
:1012880008B14FF0010800232B616B61EB610AE0A4
:10129800C3B94FF00060C2F8000900220A614FF696
:1012A8007F328A6001330799994210D904EB4312BF
:1012B80002F51061D2F800090028E9DB0020C2F825
:1012C8000009EAE74FF09040C2F80009E5E700237B
:1012D8000AE0C3B14FF0904CC2F800CB0022026183
:1012E8004FF67F3282600133994211D904EB4312E1
:1012F80002F53060D2F8006B002EEADB4FF0000CEC
:10130800C2F800CBEAE74FF0006CC2F800CBE5E783
:101318002B6923F480732B610023A3616FF0804352
:1013280063610A9B1BB9A36943F01003A361A26917
:101338000B4B1343A3610D9B1BB1A36943F0080337
:10134800A361012F04D04046BDE8F04104B07047C6
:10135800A36943F0804343F00403A361F3E700BFAC
:1013680000383C80D0F8083813F0060307D0022B69
:1013780007D0062B01D00F207047022070470020AD
:1013880070470220704710B591F800C04B78012BC8
:1013980023D000F5006ED0F81C380CF00F040122A1
:1013A800A24043EA0243C0F81C3800EB4C10D0F8C6
:1013B800003B13F4004F0ED1D0F8003B8A68C2F30B
:1013C8000A02C97842EA8142134343F0805343F446
:1013D8000043C0F8003B002010BDD0F81C280CF0DA
:1013E8000F0E03FA0EF39BB21343C0F81C3800EB40
:1013F8004C10D0F8003913F4004FECD1D0F8003974
:101408008A68C2F30A02C97842EA814242EA8C52E7
:10141800134343F0805343F40043C0F80039DAE73C
:1014280030B40B784A78012A26D000EB4313D3F85E
:10143800002B002A52DBD0F83C480A7802F00F0251
:101448004FF0010C0CFA02F224EA0242C0F83C28E0
:10145800D0F81C28097801F00F010CFA01FC22EAE7
:101468000C42C0F81C28D3F8001B234A0A40C3F8D2
:10147800002B002030BC704700EB4313D3F8002941
:10148800002A1EDBD0F83C580A7802F00F0201242B
:1014980004FA02F292B225EA0202C0F83C28D0F817
:1014A8001C28097801F00F018C40A4B222EA04023A
:1014B800C0F81C28D3F80019104A0A40C3F80029BC
:1014C800D7E7D3F8002942F00062C3F80029D3F81F
:1014D800002942F08042C3F80029D3E7D3F8002B53
:1014E80042F00062C3F8002BD3F8002B42F0804290
:1014F800C3F8002B9FE700BF0078F3EF007833ECC8
:1015080070B40B784C78012C27D000EB431000F511
:1015180030631C69E40CE4041C611C6924F0FF546A
:1015280024F4C0141C614C690CB18C684C611C69B2
:1015380044F400241C611C698D68C5F3120C44EA4C
:101548000C041C61012A66D0D0F8003B43F0044328
:10155800C0F8003B002070BC70474C696CBB00EBC6
:101568004314D4F8105925F0FF5525F4C015C4F8D4
:101578001059D4F8105945F40025C4F81059D4F876
:101588001059ED0CED04C4F81059012A34D000EBC1
:101598004313D3F8002942F00442C3F800294B69E9
:1015A800002BD7D0D0F83438097801F00F01012288
:1015B8008A401343C0F83438CCE700EB431404F5F1
:1015C80010642569ED0CED042561256925F0FF55AA
:1015D80025F4C01525618D684E69AE4200D94D616C
:1015E800256945F40025256125694E69C6F3120C65
:1015F80045EA0C052561C8E70A691AB100EB4311F1
:10160800C1F8142900EB4313D3F8002942F004422F
:10161800C3F800299EE7CA68002A95D05A6193E763
:1016280010B59DF8084084B903334FEA930E4FF084
:10163800000C08E000EB023303F5805351F8044B2B
:101648001C600CF1010CF445F4D3002010BD00001F
:10165800F0B583B00B784C78012C33D000EB4313F2
:1016680003F5306CDCF81040E40CE404CCF81040CE
:10167800DCF8104024F0FF5424F4C014CCF81040D7
:101688004C69002C40F0C980DCF810408D68C5F327
:1016980012052C43CCF81040DCF8104044F4002428
:1016A800CCF81040012A00F0D280CA78012A00F054
:1016B800D580D3F8002B42F00442C3F8002B002059
:1016C80003B0F0BD4C6984BB00EB4314D4F8105947
:1016D80025F0FF5525F4C015C4F81059D4F8105951
:1016E80045F40025C4F81059D4F81059ED0CED0450
:1016F800C4F81059012A4ED000EB4313D3F800491F
:1017080044F00444C3F80049CC78012C6CD04B69F0
:10171800002BD4D0D0F83438097801F00F01012219
:101728008A401343C0F83438C9E700EB4314D4F8AF
:101738001059ED0CED04C4F81059D4F8105925F0DF
:10174800FF5525F4C015C4F81059D4F810598E68FF
:101758004F6907EB060C0CF1FF3CBCFBF6FC494E4D
:1017680006EACC463543C4F81059D4F810594E69E6
:10177800C6F312063543C4F8105904F51064CD7841
:10178800012DB7D1256925F0C0452561256945F0AA
:1017980000552561AEE70A691AB100EB4314C4F895
:1017A8001429CA78012A08D000EB4313D3F800297A
:1017B80042F00442C3F8002981E7D0F8082812F45F
:1017C800807F08D100EB4311D1F8002942F0005284
:1017D800C1F80029E8E700EB4311D1F8002942F0ED
:1017E8008052C1F80029DFE7D0F8084814F4807F58
:1017F8000CD1D3F8004944F00054C3F800490092D2
:101808008B8A0A78C968FFF70BFF58E7D3F80049B5
:1018180044F08054C3F80049F1E78D682C44013C3A
:10182800B4FBF5F4DCF810501FFA84FE154E06EAF6
:10183800C4442C43CCF81040DCF810508C680EFBE4
:1018480004F4C4F312042C43CCF810402AE7CA6805
:10185800002A3FF42AAFCCF8142026E7D0F808284D
:1018680012F4807F06D1D3F8002B42F00052C3F85F
:10187800002B1EE7D3F8002B42F08052C3F8002B50
:1018880017E700BF0000F81F10B5844608464FEA66
:10189800920E02F00302002305E00CF5805109685E
:1018A80040F8041B01337345F7D37AB10CF5805C1B
:1018B800DCF800400021CBB2DB0024FA03F300F887
:1018C800013B0131013A92B2002AF4D110BD0B78E4
:1018D8004A78012A14D000EB4310D0F8002B002AD4
:1018E80006DB2BB1D0F8003B23F08043C0F8003B67
:1018F800D0F8003B43F40013C0F8003B00207047C9
:1019080000EB4310D0F80029002A06DB2BB1D0F8F1
:10191800003923F08043C0F80039D0F8003943F487
:101928000013C0F80039E9E70B784A78012A0ED08D
:1019380000EB4310D0F8003B23F40013C0F8003B41
:10194800CB78023BDBB2012B15D90020704700EBA6
:101958004310D0F8003923F40013C0F80039CB78CD
:10196800023BDBB2012BF0D8D0F8003943F08053AA
:10197800C0F80039E9E7D0F8003B43F08053C0F8DD
:10198800003BE2E7D0F8003823F4FE63C0F80038E3
:10199800D0F80038090101F4FE610B43C0F80038A3
:1019A80000207047D0F8003E23F00303C0F8003E43
:1019B800D0F8043823F00203C0F804380020704738
:1019C800D0F8003E23F00303C0F8003ED0F80438F6
:1019D80043F00203C0F80438002070474269806968
:1019E80010407047D0F8183800F50060C0691840FA
:1019F800000C7047D0F8183800F50060C06918402E
:101A080080B2704700EB4111D1F8082B00F5006057
:101A1800406910407047D0F81028D0F8343801F0E9
:101A28000F0C23FA0CF3DB01DBB2134300EB41107C
:101A380000F51060806818407047406900F00100A8
:101A4800704738B50546C36823F0C043C360012911
:101A580013D019BBC36843F08043C360002401203E
:101A680000F0ACFD01342846FFF7E7FF08B1312C40
:101A7800F5D9322C14D0002038BDC36843F0005388
:101A8800C3600024012000F099FD01342846FFF7C7
:101A9800D4FF0128EDD0312CF4D9EAE70120EBE797
:101AA8000120E9E7D0F8003923F4FF6323F00703A6
:101AB800C0F80039D0F8043843F48073C0F804380B
:101AC8000020704710B4046C154B9C4203D9D0F821
:101AD800003B002B16DB0024C0F8104BD0F8104B4D
:101AE80044F40024C0F8104BD0F8104B44F018040C
:101AF800C0F8104BD0F8104B44F0C044C0F8104B5D
:101B0800012903D000205DF8044B7047C0F8142B5E
:101B1800D0F8003B43F08023C0F8003BF2E700BF59
:101B28000A30544F002800F0E08170B582B00446B6
:101B3800036813F0010F3BD09F4B9B6803F00C0325
:101B4800042B2CD09C4B9B6803F00C03082B21D052
:101B58006368B3F5803F4FD0B3F5A02F52D0964BB2
:101B68001A6822F480321A601A6822F480221A60F5
:101B78006368002B50D000F01BFD05468E4B1B6898
:101B880013F4003F14D100F013FD401B6428F5D96D
:101B98000320B1E1884B5B6813F4800FD8D0864BE3
:101BA8001B6813F4003F03D06368002B00F09F818B
:101BB800236813F0020F54D07F4B9B6813F00C0F6F
:101BC8003ED07D4B9B6803F00C03082B33D0E368B1
:101BD800002B68D0794B01221A6000F0E9FC054619
:101BE800754B1B6813F0020F54D100F0E1FC401B49
:101BF8000228F5D903207FE16F4A136843F4803344
:101C08001360B5E76C4B1A6842F480221A601A68B0
:101C180042F480321A60ABE700F0CAFC0546664B16
:101C28001B6813F4003FC3D000F0C2FC401B6428BB
:101C3800F5D9032060E1604B5B6813F4800FC6D1CF
:101C48005D4B1B6813F0020F03D0E368012B40F0D3
:101C58005081594A136823F0F803216943EAC10304
:101C68001360236813F0080F42D063696BB3534BBA
:101C78000122C3F8802E00F09BFC05464E4B5B6F9B
:101C880013F0020F34D100F093FC401B0228F5D961
:101C9800032031E1484A136823F0F803216943EA35
:101CA800C1031360DDE7454B00221A6000F080FC99
:101CB8000546414B1B6813F0020FD2D000F078FCA8
:101CC800401B0228F5D9032016E13C4B0022C3F83B
:101CD800802E00F06DFC0546374B5B6F13F0020F4A
:101CE80006D000F065FC401B0228F5D9032003E16B
:101CF800236813F0040F77D02F4B1B6C13F0805F11
:101D080033D1002301932C4B1A6C42F080521A6491
:101D18001B6C03F080530193019B0125284B1B6822
:101D280013F4807F23D0A368012B34D0052B38D03F
:101D3800214B1A6F22F001021A671A6F22F004026F
:101D48001A67A368002B3DD000F032FC06461A4BF8
:101D58001B6F13F0020F46D100F02AFC801B41F2E2
:101D680088339842F3D90320C6E00025D6E7144A01
:101D7800136843F48073136000F01AFC0646104B96
:101D88001B6813F4807FCED100F012FC801B022860
:101D9800F5D90320B0E0084A136F43F00103136735
:101DA800CFE7054B1A6F42F004021A671A6F42F028
:101DB80001021A67C5E700BF003802400000474229
:101DC8000070004000F0F4FB0646524B1B6F13F006
:101DD800020F08D000F0ECFB801B41F288339842D8
:101DE800F3D9032088E0EDB9A369002B00F08380C4
:101DF800484A926802F00C02082A51D0022B17D0E8
:101E0800454B00221A6600F0D3FB0446414B1B6881
:101E180013F0007F42D000F0CBFB001B0228F5D95D
:101E2800032069E03B4A136C23F080531364DBE71B
:101E3800394B00221A6600F0BBFB0546354B1B6880
:101E480013F0007F06D000F0B3FB401B0228F5D941
:101E5800032051E0E369226A1343626A43EA82136A
:101E6800A26A5208013A43EA0243E26A43EA026379
:101E7800284A5360284B01221A6600F099FB044651
:101E8800244B1B6813F0007F06D100F091FB001B68
:101E98000228F5D903202FE000202DE000202BE0B8
:101EA800012B2BD01B4B5B6803F48001E269914244
:101EB80026D103F03F02216A8A4223D1616A47F69C
:101EC800C0721A40B2EB811F1ED103F44031A26ADE
:101ED8005208013AB1EB024F18D103F07063E26A7D
:101EE800B3EB026F14D1002006E0012070470120F7
:101EF80002E0012000E0002002B070BD0120FBE7F5
:101F08000120F9E70120F7E70120F5E70120F3E7D1
:101F18000120F1E7003802400000474208B5264B8F
:101F28009B6803F00C03042B41D0082B41D1224BB2
:101F38005A6802F03F025B6813F4800F12D01E4B00
:101F48005968C1F388111D480023A1FB0001FEF761
:101F58001FF9194B5B68C3F3014301335B00B0FB06
:101F6800F3F027E0144B5868C0F388104FEA401C80
:101F7800BCEB000C6EEB0E0E4FEA8E1343EA9C632B
:101F88004FEA8C11B1EB0C0163EB0E03DB0043EA63
:101F98005173C90011EB000C43F1000399020023AF
:101FA8004FEA8C2041EA9C51FEF7F2F8D1E703484A
:101FB80000E0034808BD00BF0038024040787D01BA
:101FC8000024F400002800F09B8070B50D460446FC
:101FD8004F4B1B6803F007038B4208D2CBB24C4A25
:101FE8001370136803F007038B4240F08B8023685B
:101FF80013F0020F17D013F0040F04D0454A93686A
:1020080043F4E0539360236813F0080F04D0414A67
:10201800936843F4604393603E4A936823F0F00367
:10202800A1680B439360236813F0010F32D06368F3
:10203800012B21D09A1E012A25D9364A126812F09E
:10204800020F61D033498A6822F0030213438B6080
:1020580000F0AEFA06462F4B9B6803F00C0362684B
:10206800B3EB820F16D000F0A3FA801B41F288333D
:102078009842F0D9032042E0264A126812F4003F41
:10208800E0D101203BE0234A126812F0007FD9D149
:10209800012034E01E4B1B6803F00703AB4207D94D
:1020A800EAB21B4B1A701B6803F00703AB422DD131
:1020B800236813F0040F06D0164A936823F4E053FC
:1020C800E1680B439360236813F0080F07D0114AA7
:1020D800936823F46043216943EAC1039360FFF7DF
:1020E8001DFF0C4B9B68C3F303130B4AD35CD8400A
:1020F8000A4B18600A4B186800F00EFA002070BDF1
:10210800012070470120FAE70120F8E70120F6E7EF
:10211800003C024000380240083B0008080000204C
:1021280004000020014B1868704700BF0800002019
:1021380038B500F03DFA0446474A136843F00103F6
:102148001360454B1B6813F0020F06D100F030FAFC
:10215800001B0228F5D9032038BD3F4D2B6843F0FA
:1021680080032B6000F024FA04460023AB603A4B4E
:102178009B6813F00C0F08D000F01AFA001B41F20C
:1021880088339842F3D90320E6E700F011FA0446B1
:10219800314A136823F4502313602F4B1B6813F440
:1021A800003F06D000F004FA001B6428F5D903208C
:1021B800D2E700F0FDF90446274A136823F080733C
:1021C8001360254B1B6813F0007F06D000F0F0F970
:1021D800001B0228F5D90320BEE700F0E9F9044600
:1021E8001D4A136823F0806313601B4B1B6813F0B0
:1021F800006F06D000F0DCF9001B0228F5D9032097
:10220800AAE7154B154A5A6002F1E052C3F8842038
:10221800DA6822F4F852DA60DA6822F40052DA60F6
:10222800DA6842F41F02DA60DA6842F40012DA600F
:102238005A6F22F001025A675A6F42F080725A6749
:10224800074B084A1A60084B186800F065F900281F
:1022580082D0012080E700BF00380240103000041F
:10226800080000200024F4000400002000230F2BA5
:1022780000F2D78070B582B065E085684FEA430EFA
:10228800032404FA0EF425EA0405CC6804FA0EF4D3
:102298002C438460446824EA02044A68C2F30012AA
:1022A8009A40224342605CE0DC08083450F824205D
:1022B80003F00705AD004FF00F0E0EFA05FE22EAF7
:1022C8000E0E0A69AA4042EA0E0240F824205CE099
:1022D800042200E0002202FA0EF22A430234514D91
:1022E80045F82420504A14686FEA0C0224EA0C05C9
:1022F8004E6816F4803F01D04CEA04054A4C25602C
:10230800646802EA04054E6816F4003F01D04CEAFE
:102318000405454C6560A46802EA04054E6816F495
:10232800801F01D04CEA04053F4CA560E4682240B8
:102338004D6815F4001F01D04CEA04023A4CE260E3
:1023480001330F2B6BD801229A400C6804EA020C67
:1023580032EA0404F4D14C6804F00304013C012C73
:102368008BD94A6802F00302032A09D0C4685D00C9
:102378000322AA4024EA02048A68AA402243C260CF
:102388004A6802F00302022A8ED004684FEA430E1C
:10239800032202FA0EF224EA02044A6802F0030257
:1023A80002FA0EF2224302604A6812F4403FC7D094
:1023B800002201921D4A546C44F480445464526CC7
:1023C80002F480420192019A9C08A51C154A52F811
:1023D800255003F0030E4FEA8E0E0F2202FA0EF27A
:1023E80025EA0205124A90423FF474AF02F5806272
:1023F80090420ED002F5806290420CD002F58062C5
:1024080090420AD002F5806290423FF461AF072201
:1024180061E701225FE702225DE703225BE702B082
:1024280070BD704700380140003C01400038024050
:10243800000002400AB18161704709048161704758
:10244800074AD36823F4E0631B041B0C000200F462
:10245800E060034343F0BF6343F40033D360704745
:1024680000ED00E000B5194BDB68C3F30223C3F1AC
:10247800070CBCF1040F28BF4FF0040C03F1040E45
:10248800BEF1060F18D9033B4FF0FF3E0EFA0CFCC5
:1024980021EA0C0199400EFA03FE22EA0E020A43D1
:1024A80000280BDB1201D2B200F1604000F5614058
:1024B80080F800235DF804FB0023E5E700F00F0037
:1024C8001201D2B2024B1A54F4E700BF00ED00E04B
:1024D80014ED00E0002807DB00F01F02400901238B
:1024E8009340024A42F82030704700BF00E100E004
:1024F8000138B0F1807F0BD24FF0E0235861054AD4
:10250800F02182F823100020986107221A61704791
:102518000120704700ED00E010B504460E4B1A7814
:102528004FF47A73B3FBF2F30C4A1068B0FBF3F084
:10253800FFF7DEFF68B90F2C01D901200AE000225D
:1025480021464FF0FF30FFF78DFF054B1C60002040
:1025580000E0012010BD00BF00000020080000209E
:102568000400002008B50B4B1A6842F400721A6088
:102578001A6842F480621A601A6842F480721A601B
:102588000320FFF75DFF0020FFF7C6FFFDF746FFBA
:10259800002008BD003C0240034A1168034B1B7829
:1025A8000B441360704700BFB801002000000020F2
:1025B800014B1868704700BFB801002038B50446C1
:1025C800FFF7F6FF0546B4F1FF3F02D0044B1B7836
:1025D8001C44FFF7EDFF401BA042FAD338BD00BFF3
:1025E80000000020034AD2F8883043F47003C2F890
:1025F8008830704700ED00E098B108B50346D0F880
:102608008C0210B10020C3F88C0209B1C3F88812FB
:10261800012183F874121A70184600F055FE002044
:1026280008BD0220704719B1C0F88C12002070470D
:102638000220704708B500F0A2FE002008BD08B5CA
:10264800D0F88C322BB11B68984700B908BD02201E
:10265800FCE70220FAE708B5D0F88C325B689847A7
:10266800002008BD38B5044600F52075284600F05E
:1026780041F90123C4F86C32B4F88632C4F87032D8
:1026880094F8801201F01F03012B0ED0022B11D0F9
:102698002BB101F08001204600F08CFE03E02946B2
:1026A800204600F0B3FA002038BD2946204600F045
:1026B800E1FAF8E72946204600F00CFBF3E738B5C5
:1026C80004460D4691BB1346D0F86C22032A03D06A
:1026D800052A24D0084633E0D0F84C11D0F8502110
:1026E80091420DD9891AC0F84C118A4206D98AB28A
:1026F8001946204600F00FFC284621E092B2F7E781
:10270800D0F88C321B691BB190F87422032A04D0CC
:10271800204600F008FC284612E09847F8E7002118
:10272800C0F86C1200F046FE284609E0D0F88C325A
:102738009B6933B190F87422032A04D1984700208A
:1027480038BD0220FCE70220FAE738B504460D46FA
:10275800002953D11346D0F86C22022A0CD0042A3F
:1027680000D01AB98021204600F024FE94F878326F
:10277800012B3ED0284638BD026A416A8A421BD8DE
:10278800C269B2FBF1F301FB13232BB9914203D8C1
:10279800D0F870329A421CD3D4F88C32DB681BB163
:1027A80094F87422032A21D08021204600F002FEEA
:1027B800204600F0C3FBD9E7521A026292B21946CA
:1027C80000F0A1FB00231A461946204600F012FE2D
:1027D800CCE70022114600F096FB0021C4F87012E5
:1027E8000B460A46204600F005FEBFE720469847FC
:1027F800DAE7002384F878322846BCE7D0F88C3230
:102808005B6933B190F87422032A04D198470020F9
:10281800B1E70220AFE70220ADE770B504464023D8
:102828000022114600F0B3FD0125C4F844514026AA
:10283800C4F85061334600228021204600F0A7FDED
:10284800A561666284F874520023C4F86C32636030
:10285800C4F87C32D4F890322BB1D4F88C325B684F
:10286800002120469847002070BD01740020704761
:1028780090F8743280F87532042380F8743200209E
:10288800704790F8753280F874320020704708B5A8
:1028980090F87432032B01D0002008BDD0F88C3298
:1028A800DB69002BF8D09847F6E700207047002036
:1028B80070470020704708B5012280F87422D0F8CC
:1028C8008C22526801799047002008BD03460020F9
:1028D80002E00130C0B201331A78002AF9D17047FA
:1028E80008B54B88012B00D008BDC0F87C3200F039
:1028F8001AFBF9E70B7803704B7843708B78CA782A
:1029080003EB022343800B794A7903EB022383808C
:102918008B79CA7903EB0223C380704710B504464C
:10292800802100F047FD0021204600F043FD10BD46
:1029380030B583B005460C464A88130A013B062B7E
:1029480000F28480DFE803F004162A8282667300AE
:10295800D0F888321B680DF10601007C9847BDF855
:10296800062012B1E388002B74D1E388002B7BD0BA
:1029780003B030BD037C43B9D0F88C329B6A0DF1AB
:102988000600984702234370E9E7D0F88C32DB6AE7
:102998000DF10600984702234370E0E7D2B2052AFA
:1029A80034D8DFE802F0030B131B232BD0F888324E
:1029B8005B680DF10601007C9847D0E7D0F88832B3
:1029C8009B680DF10601007C9847C8E7D0F888326B
:1029D800DB680DF10601007C9847C0E7D0F8883223
:1029E8001B690DF10601007C9847B8E7D0F88832DA
:1029F8005B690DF10601007C9847B0E7D0F8883292
:102A08009B690DF10601007C9847A8E72146FFF76E
:102A180085FFADE7037C33B9D0F88C325B6B0DF1E1
:102A2800060098479BE72146FFF778FFA0E7037C5D
:102A380043B9D0F88C321B6B0DF106009847072379
:102A480043708CE72146FFF769FF91E72146FFF7BE
:102A580065FF8DE79A4228BF1A46ADF80620014661
:102A6800284600F043FA80E7284600F05CFA7FE742
:102A780038B504468B88F3B9CB88E3B94B887F2BEC
:102A880019D803F07F0590F87432032B0CD080F826
:102A98007652294600F09EFC204600F044FA35B1F3
:102AA800022384F8743209E0FFF738FF06E00123B7
:102AB80084F8743202E02046FFF730FF38BD00008A
:102AC80038B504460D468978284B197001290ED867
:102AD80090F87432022B0ED0032B21D02946FFF731
:102AE8001DFF224B19782046FFF7B5FD02E0294665
:102AF800FFF714FF38BD81B14160032380F87432B9
:102B0800FFF79DFD022803D0204600F00CFAF1E7FC
:102B180029462046FFF702FFECE700F004FAE9E750
:102B280089B1436899421DD0D9B2FFF794FD0F4B84
:102B3800197861602046FFF782FD02280DD02046F3
:102B480000F0F1F9D6E7022380F874324160FFF70C
:102B580082FD204600F0E7F9CCE729462046FFF73A
:102B6800DDFEC7E700F0DFF9C4E700BFBC010020C5
:102B780008B5CB88012B0AD190F87432022B09D9F9
:102B8800032B09D10122011D00F0B0F901E0FFF784
:102B9800C5FE08BD5BB213B9FFF7C0FEF9E70146F1
:102BA800002341F8083F012200F0A0F9F1E708B539
:102BB80090F87432013B022B12D8CB88022B0CD12F
:102BC8000123C360D0F87C320BB10323C360022217
:102BD80000F10C0100F08AF908BDFFF79FFEFBE742
:102BE800FFF79CFEF8E708B590F87432013B022B1A
:102BF80009D84B88012B00D008BD0023C0F87C32CF
:102C080000F091F9F8E7FFF789FEF5E708B50B78CA
:102C180003F06003202B05D0402B03D043B1FFF70E
:102C28007DFE03E0D0F88C329B689847002008BDF1
:102C38004B78092B1BD8DFE803F011171A141A0870
:102C4800051A0E0BFFF774FEF0E7FFF711FFEDE72B
:102C5800FFF736FFEAE7FFF78BFFE7E7FFF7A7FF86
:102C6800E4E7FFF73DFEE1E7FFF7BDFFDEE7FFF72B
:102C780055FEDBE738B505460C460B7803F06003D4
:102C8800202B06D0402B04D01BB1FFF747FE0020B5
:102C980038BD95F87432013B022B16D82379012BE5
:102CA8000ED8D5F88C329B68214628469847E38889
:102CB800002BECD10028EAD1284600F034F9E6E7E9
:102CC80021462846FFF72AFEE1E721462846FFF776
:102CD80025FEDCE770B505468B880C7804F06004A7
:102CE800202C07D0DAB2402C04D05CB1FFF716FED6
:102CF800002405E0D5F88C329B68284698470024C4
:102D0800204670BD202C09D04E78012E33D0032EDA
:102D18000AD0002E55D0FFF701FEF1E7D0F88C322B
:102D28009B6898470446EBE790F87432022B04D06E
:102D3800032B11D0FFF7F2FDE2E70AB1802A03D195
:102D48002846FFF7EBFDDBE7114600F033FB802157
:102D5800284600F02FFBD3E74B8823B91AB1802A05
:102D680001D0CB881BB1284600F0DDF8C8E7114632
:102D780000F020FBF7E790F87432022B04D0032B05
:102D880011D0FFF7CBFDBBE70AB1802A03D1284653
:102D9800FFF7C4FDB4E7114600F00CFB802128467C
:102DA80000F008FBACE74B88002BA9D112F07F0F8D
:102DB80003D1284600F0B7F8A2E7114600F002FB5D
:102DC800F7E790F87402022806D0032828D028468E
:102DD800FFF7A4FD344693E70AB1802A12D113F015
:102DE800800F14D102F07F0202EB8202910001F5FC
:102DF800A071294400230B600222284600F076F8CF
:102E080034467DE72846FFF789FD344678E702F027
:102E18007F0202EB82029100103129440431E9E774
:102E28005BB2002B1EDB02F00F0000EB800005EB0D
:102E38008000D0F8440118B3002B26DB02F07F0392
:102E480003EB83039C0004F5A0742C440AB1802A88
:102E580024D10023236002222146284600F046F8A8
:102E680034464DE702F00F0000EB800005EB8000D0
:102E780080690028E0D12846FFF750FD34463FE737
:102E88002846FFF74BFD34463AE702F07F0303EB91
:102E980083039C0010342C440434D7E71146284699
:102EA80000F046FA10B101232360D4E70023236021
:102EB800D1E7D0B170B50D4616460446FFF706FDBA
:102EC800431C5B009BB233802B7003236B7002237F
:102ED80007E001345A1CD2B2E8540233DBB20021B5
:102EE800A95420780028F4D170BD704708B513465E
:102EF8000222C0F86C22C36103620A46002100F076
:102F080071FA002008BD08B513460A46002100F0F2
:102F180069FA002008BD08B513460A46002100F0EA
:102F280069FA002008BD08B50423C0F86C320023F4
:102F38001A46194600F056FA002008BD08B50523C0
:102F4800C0F86C3200231A46194600F053FA0020E4
:102F580008BD0020704700008523038000487047A3
:102F680044000020D0F89032002083F88000704799
:102F780000207047002070470020704700207047ED
:102F8800002070470A23038000487047CC000020C7
:102F9800F8B5D0F89072012901D00020F8BD054697
:102FA80000F0DDF90646002406E0D5F894329B6867
:102FB8003146381998470434B442F6D340233A4688
:102FC8000121284600F016FAE7E738B50446012142
:102FD80000F0E8F90025C4F858518121204600F096
:102FE800E1F9E562D4F8900218B100F0FBFAC4F8F0
:102FF8009052002038BD38B50446402302220121F2
:1030080000F0C5F90125C4F8585140230222812156
:10301800204600F0BCF9E562822000F0DBFAC4F833
:10302800900250B10246002580F8805040230121CB
:10303800204600F0DFF9284638BD0220FCE709B138
:10304800C0F894120020704738B51446D0F8905252
:1030580005F1400000F0CEFA85F88140002038BD27
:1030680010B5D0F8902292F8804014B1012420467F
:1030780010BD012382F8803092F88130036392F802
:1030880081304032812100F0ADF9F0E7002070472F
:1030980000207047437803F00F0203F0F003F02B91
:1030A80001D0002070470F2AFBD1BFF34F8F05498D
:1030B800CA6802F4E062044B1343CB60BFF34F8F3E
:1030C80000BFFDE700ED00E00400FA0510B5054C6F
:1030D8008AB201462046FFF7B7FF2046FFF7C0FF38
:1030E80040B210BDC001002000B583B00B238DF89D
:1030F800043060F04F008DF805008DF806108DF84B
:10310800072004210DEB0100FFF7E0FF03B05DF895
:1031180004FB000010B5094C002209492046FFF7BE
:103128006BFA08492046FFF77EFA07492046FFF761
:1031380086FF2046FFF77EFA10BD00BFC0010020C1
:10314800E80000200C000020D800002070B588B0EE
:103158000023039304930593069307930368B3F13D
:10316800A04F01D008B070BD002501951B4C236B02
:1031780043F001032363236B03F001030193019BD5
:103188004FF400730393164E03A93046FFF76EF809
:103198004FF4C05303930223049305950323069326
:1031A8000A23079303A93046FFF760F8636B43F0DF
:1031B800800363630295636C43F480436364636CC8
:1031C80003F480430293029B2A4629464320FFF7D3
:1031D80049F94320FFF77EF9C4E700BF00380240F1
:1031E8000000024008B500F57171D0F80404FFF73B
:1031F80039FA08BD08B5C1EBC10300EB8303D3F866
:103208000822D0F80404FFF75AFA08BD08B5C1EB44
:10321800C10300EB83039A6CD0F80404FFF795FA16
:1032280008BD08B5D0F80404FFF731FB08BD10B598
:103238000446C3683BB1022B01D1012104E0FDF72C
:1032480047F8012100E00021D4F80404FFF70DFB42
:10325800D4F80404FFF7E1FA10BD000010B50446E5
:10326800D0F80404FFF704FB2268D2F8003E43F0CC
:103278000103C2F8003E236A23B1034A136943F0ED
:103288000603136110BD00BF00ED00E008B5D0F8DB
:103298000404FFF7F6FA08BD08B5D0F80404FFF7F0
:1032A80006FB08BD08B5D0F80404FFF7FEFA08BD10
:1032B80008B5D0F80404FFF7FCFA08BD08B5D0F843
:1032C8000404FFF7F8FA08BD02780AB10020704735
:1032D80010B503461548C0F80434C3F898024FF0F7
:1032E800A0430360042343600222C26000230361F9
:1032F8008261C361036243620122C2620363FDF714
:1033080011F980B9094C80212046FDF73EFE402284
:1033180000212046FDF713FE802201212046FDF7FB
:103328000EFE002010BDFCF7D3FFEBE76004002081
:10333800D0F8983211F0800F08D101F07F01C1EB6D
:10334800C10103EB810393F8FE01704701F07F018F
:10335800C1EBC10103EB810393F83E00704708B548
:10336800D0F89802FDF734FD08BD022805D8DFE83B
:1033780000F005040200012070470220704708B5DC
:10338800D0F89802FDF765F9FFF7EFFF08BD08B51B
:1033980094461A466346D0F89802FDF76CFCFFF78E
:1033A800E4FF08BD08B5D0F89802FDF7A9FCFFF7BF
:1033B800DCFF08BD08B5D0F89802FDF741FDFFF71E
:1033C800D4FF08BD08B5D0F89802FDF77DFDFFF7DA
:1033D800CCFF08BD08B5D0F89802FDF738FCFFF718
:1033E800C4FF08BD08B5D0F89802FDF7FAFCFFF74E
:1033F800BCFF08BD08B5D0F89802FDF7BAFCFFF786
:10340800B4FF08BD12230B80004870470401002058
:1034180004230B80004870471801002000239342C2
:103428001ED200B510E00CF1370C01F813C00001F2
:103438004FEA430C0CF1010C4FF0000E01F80CE0C0
:103448000133DBB2934209D24FEA107CB0F1204F2E
:10345800E9D20CF1300C01F813C0E8E75DF804FB81
:103468007047000038B50B4BD3F8100AD3F8144A4C
:10347800D3F8183AC01800D138BD074D0822A91C46
:10348800FFF7CCFF042205F112012046FFF7C6FF23
:10349800F2E700BF0070FF1F1C01002008B51A23C7
:1034A8000B80FFF7DFFF014808BD00BF1C010020AB
:1034B80008B50A4628B905490548FFF7FAFC034844
:1034C80008BD02490248FFF7F4FCF8E76808002045
:1034D800183B000810B50A46034C21460348FFF77D
:1034E800E8FC204610BD00BF680800202C3B0008FF
:1034F80008B50A4628B905490548FFF7DAFC034824
:1035080008BD02490248FFF7D4FCF8E76808002024
:10351800383B000808B50A4628B905490548FFF7A9
:10352800C8FC034808BD02490248FFF7C2FCF8E797
:1035380068080020483B0008DFF834D00D480E49E1
:103548000E4A002302E0D458C4500433C4188C42F5
:10355800F9D30B4A0B4C002301E013600432A2425A
:10356800FBD3FFF73FF800F011F8FCF705FF7047B1
:1035780000000220000000209C010020683B000899
:103588009C010020780A0020FEE7000070B50D4D70
:103598000D4C641BA4100026A64209D10B4D0C4CFF
:1035A80000F0A2FA641BA4100026A64205D170BD43
:1035B80055F8043B98470136EEE755F8043B984721
:1035C8000136F2E7603B0008603B0008603B0008FA
:1035D800643B0008024B0146186800F08DB800BF34
:1035E80038010020024B0146186800F019B800BFE6
:1035F800380100200A44914200F1FF3300D170479E
:1036080010B511F8014B03F8014F9142F9D110BDE3
:1036180002440346934200D1704703F8011BF9E7BF
:1036280037B5002944D051F8043C0190002BA1F192
:103638000404B8BFE41800F0E3F81E4A01981368C0
:1036480033B96360146003B0BDE8304000F0D9B806
:10365800A34208D9256861198B4201BF19685B68C4
:1036680049192160EDE71A465B680BB1A342FAD904
:1036780011685518A5420BD1246821445418A34257
:103688001160E0D11C685B6853600C441460DAE791
:1036980002D90C230360D6E7256861198B4204BF61
:1036A80019685B68636004BF491921605460CAE700
:1036B80003B030BD680A002070B50E4E0C46316864
:1036C800054611B900F08CF830602146284600F014
:1036D80087F8431C0AD0C41C24F00304A04207D076
:1036E800211A284600F07CF8013001D14FF0FF3450
:1036F800204670BD6C0A00202DE9F041CD1C25F054
:10370800030508350C2D38BF0C25002D074601DBB5
:10371800A94205D90C233B6000263046BDE8F0815C
:103728002E4E00F06DF833681C4634BB29463846E7
:10373800FFF7C2FF431C04464DD134682646002ECD
:1037480040D123683146384604EB030800F048F8B6
:1037580080453AD123680335ED1A25F0030508356D
:103768000C2D38BF0C2529463846FFF7A5FF013038
:103778002BD023682B4423600EE02268521B1ED4F2
:103788000B2A16D96119A342256018BF59606368CE
:1037980008BF316062514B60384604F10B0600F0F7
:1037A80030F826F00706231DF21AB6D09B1BA3504B
:1037B800B3E76268A3420CBF32605A60ECE7234665
:1037C8006468B2E734467668B9E70C233B6038464C
:1037D80000F017F8A1E72560DEE700BF680A0020BF
:1037E80038B5064D0023044608462B6000F00AF859
:1037F800431C02D12B6803B1236038BD700A002036
:1038080070477047044A05491368002B08BF0B46E8
:103818001844106018467047740A0020780A00207F
:103828002DE9F047089E0D4604460F46002B4AD165
:103838008A42944665D9B2FA82F343B102FA03FC8C
:10384800C3F120029F4020FA02F217439C404FEA3E
:103858001C4E1FFA8CF5B7FBFEF1220C0EFB1177FC
:1038680042EA074201FB05F090420AD91CEB02022A
:1038780001F1FF3780F01C81904240F21981023932
:103888006244121AA4B2B2FBFEF00EFB102244EA04
:10389800024400FB05F5A5420AD91CEB040400F11B
:1038A800FF3280F00781A54240F204816444023867
:1038B80040EA0140641B00211EB1DC400023C6E938
:1038C8000043BDE8F0878B4208D9002E00F0ED8058
:1038D8000021C6E900050846BDE8F087B3FA83F180
:1038E800002949D1AB4202D3824200F2F880841AFF
:1038F80065EB030201201746002EE2D0C6E9004717
:10390800DFE702B9FFDEB2FA82F3002B40F09080C5
:103918008A1A4FEA1C471FFA8CFE0121B2FBF7F501
:1039280007FB1520220C42EA00420EFB05F09042EC
:1039380008D91CEB020205F1FF3802D2904200F2CE
:10394800CB804546121AA4B2B2FBF7F007FB10224F
:1039580044EA02440EFB00FEA64508D91CEB040409
:1039680000F1FF3202D2A64500F2BB801046A4EB5C
:103978000E0440EA05409FE7C1F120078B4022FA78
:1039880007FC4CEA030C05FA01F420FA07F3FD40A2
:103998004FEA1C492343B5FBF9F81FFA8CFE09FBD3
:1039A80018551C0C44EA054408FB0EF5A54202FA1A
:1039B80001F200FA01F00BD91CEB040408F1FF3AFC
:1039C80080F08880A54240F28580A8F1020864440E
:1039D800641B9DB2B4FBF9F309FB134445EA0444A4
:1039E80003FB0EFEA64508D91CEB040403F1FF35C2
:1039F8006CD2A6456AD9023B644443EA0843A3FB58
:103A08000295A4EB0E04AC42C846AE4656D353D03A
:103A180056B1B0EB080264EB0E0404FA07F7CA408B
:103A2800CC401743C6E9007418460021BDE8F0876A
:103A3800C3F1200102FA03FC20FA01F225FA01F190
:103A48009D402A434FEA1C471FFA8CFEB1FBF7F052
:103A580007FB1015110C41EA054100FB0EF58D42DC
:103A680004FA03F408D91CEB010100F1FF382FD246
:103A78008D422DD902386144491B92B2B1FBF7F54A
:103A880007FB151142EA014205FB0EF1914208D9E4
:103A98001CEB020205F1FF3816D2914214D9023DFF
:103AA8006244521A45EA004138E73146304608E791
:103AB8003946E6E61046FBE64845A9D2B9EB0208C6
:103AC80065EB0C0E013BA3E74546EAE72B4694E776
:103AD8004046D1E7D0467BE7023D624432E70846DC
:103AE8000AE76444023842E7F8B500BFF8BC08BCEE
:103AF8009E467047F8B500BFF8BC08BC9E467047A4
:103B08000000000000000000010203040607080985
:103B1800464654204C6976652050726F746F7479EC
:103B28007065000053616D204B656E7400000000E5
:103B3800415544494F20436F6E6669670000000095
:103B4800415544494F20496E74657266616365004A
:083B5800D0FCFF7F010000001A
:043B60003502000822
:043B64000D02000846
:103B680001000000100000000024F400FF2F0008EE
:103B7800D32F00085B2F00087D2F0008792F00083D
:103B88006D2F0008992F0008812F0008852F000845
:103B9800892F0008612F0008612F0008612F000895
:103BA8008D2F0008090285000201008050090400D9
:103BB80000000101000209240100010900010109B6
:103BC800040100020103000207240100014100066C
:103BD8002402010100062402020200092403010351
:103BE8000102010009240302040101010006240264
:103BF8000105000624020206000924030107010644
:103C08000100092403020801050100090501024019
:103C18000000000006250102010509058102400097
:103C28000000000625010203070000000A06000242
:103C3800000000400100000095300008993000089D
:103C48009D300008D53000080D34000819340008EC
:103C5800DD340008B9340008A5340008F934000838
:103C68001D3500081201000200000040830440577F
:103C78000002010203010000040309041A03000002
:103C8800000000000000000000000000000000002C
:103C980000000000000000003C01002000000000BF
:103CA800000000000000000000000000000000000C
:103CB80000000000000000000000000000000000FC
:103CC80000000000000000000000000000000000EC
:103CD80000000000000000000000000000000000DC
:103CE80000000000000000000000000000000000CC
:0C3CF800000000000000000000000000C0
:040000050800354179
:00000001FF
